:100000000C942A000C9447000C942B130C9447007A
:100010000C9447000C9447000C9447000C94470044
:100020000C9447000C9447000C9447000C94470034
:100030000C9447000C9447000C9447000C94470024
:100040000C9447000C9447000C9447000C94470014
:100050000C94470011241FBECFE5D4E0DEBFCDBF16
:1000600012E0A0E6B0E0E8E3F3E402C005900D92F0
:10007000A83EB107D9F713E0A8EEB2E001C01D9287
:10008000AA38B107E1F70E94A8120C949A210C94A7
:100090000000EF92FF920F931F937B018C0120E0F1
:1000A00030E040E05FE40E94250488238CF0C80122
:1000B000B70120E030E040E05FE40E94C1010E940F
:1000C00013059B01AC01205030404040504806C011
:1000D000C801B7010E9413059B01AC01B901CA0117
:1000E0001F910F91FF90EF900895A0E0B0E0EBE733
:1000F000F0E00C94C21EDC012B01FA019C919230BD
:1001000008F439C1EB018881823008F433C194309E
:1001100069F4843009F02FC111969C91119789815F
:10012000981709F428C1AFEDB1E025C1843009F476
:1001300021C18230A9F4923009F01DC19A01AD01AC
:1001400088E0EA010990AE01E90109929E0181501F
:10015000C1F7E201898111969C918923818308C1AD
:10016000923009F407C112962D903C901397EB0141
:100170008A819B811496AD90BD90CD90DC901797AD
:10018000EC80FD800E811F819101281B390BB90184
:1001900037FF04C066277727621B730B6032710537
:1001A0000CF061C0121613066CF537014801062EDB
:1001B00004C096948794779467940A94D2F721E0C8
:1001C00030E040E050E004C0220F331F441F551FB1
:1001D0006A95D2F721503040404050402E213F21B7
:1001E00040235123211531054105510521F021E01E
:1001F00030E040E050E079018A01E628F72808293C
:1002000019293CC0232BD1F1260E371E350146019A
:10021000062E04C096948794779467940A94D2F734
:1002200021E030E040E050E004C0220F331F441FC3
:10023000551F6A95D2F721503040404050402A2146
:100240003B214C215D21211531054105510521F04E
:1002500021E030E040E050E059016A01A628B728CB
:10026000C828D9280BC0821593052CF01C01AA249C
:10027000BB24650103C0EE24FF24870111969C91E5
:10028000D20111968C91981709F445C0992339F041
:10029000A80197012A193B094C095D0906C0A6016E
:1002A00095012E193F09400B510B57FD08C01182D3
:1002B0003382228224833583468357831DC081E0A5
:1002C00081833382228288279927DC01821B930B4A
:1002D000A40BB50B84839583A683B7830DC0220F2F
:1002E000331F441F551F24833583468357838281E0
:1002F000938101979383828324813581468157813D
:10030000DA01C9010197A109B1098F5F9F4FAF4F72
:10031000BF4328F30BC0918333822282EA0CFB1C7B
:100320000C1D1D1DE482F5820683178383E0808304
:10033000248135814681578157FF1AC0C901AA27F8
:1003400097FDA095BA2F81709070A070B0705695EF
:10035000479537952795822B932BA42BB52B848318
:100360009583A683B7838281938101969383828349
:10037000DF0101C0D201CD01CDB7DEB7E2E10C94BF
:10038000DE1EA0E2B0E0E7ECF1E00C94CE1E698343
:100390007A838B839C832D833E834F835887E9E048
:1003A000EE2EF12CEC0EFD1ECE010196B7010E943F
:1003B00004078E010F5E1F4FCE010596B8010E9403
:1003C00004078A8991E089278A8BC701B801AE01A9
:1003D000475E5F4F0E9475000E942F06A096E6E0E0
:1003E0000C94EA1EA0E2B0E0E8EFF1E00C94CE1E1F
:1003F00069837A838B839C832D833E834F835887C5
:10040000F9E0EF2EF12CEC0EFD1ECE010196B701A6
:100410000E9404078E010F5E1F4FCE010596B801A2
:100420000E940407C701B801AE01475E5F4F0E94FA
:1004300075000E942F06A096E6E00C94EA1EA0E24A
:10044000B0E0E5E2F2E00C94C21E69837A838B830C
:100450009C832D833E834F835887CE010196BE0136
:10046000675F7F4F0E940407CE010596BE016F5E55
:100470007F4F0E9404079985923088F089898230E5
:10048000C8F0943019F4823051F404C0843029F457
:10049000923081F48FED91E0C6C0923049F420E0B3
:1004A0009A858A89981321E02A87CE010996BBC0D4
:1004B000823049F420E09A858A89981321E02A8BBA
:1004C000CE014196B0C02D843E844F8458886D88FB
:1004D0007E888F88988CEE24FF248701AA24BB2471
:1004E000650140E050E060E070E0E0E0F0E0C10174
:1004F00081709070892BE9F0E60CF71C081D191D1E
:100500009A01AB012A0D3B1D4C1D5D1D80E090E062
:10051000A0E0B0E0E614F7040805190520F481E036
:1005200090E0A0E0B0E0BA01A901480F591F6A1F8E
:100530007B1FAA0CBB1CCC1CDD1C97FE08C081E0F5
:1005400090E0A0E0B0E0A82AB92ACA2ADB2A3196B6
:10055000E032F10549F0660C771C881C991C569412
:10056000479437942794C3CFFA85EA892B893C892D
:100570008B859C85280F391F2E5F3F4F17C0CA01FE
:1005800081709070892B61F016950795F794E79428
:1005900080E090E0A0E0B0E8E82AF92A0A2B1B2BC3
:1005A00076956795579547952F5F3F4F77FDE7CF36
:1005B0000CC0440F551F661F771F17FD4160EE0CDE
:1005C000FF1C001F111F21503040403090E05907A0
:1005D00090E0690790E4790760F32B8F3C8FDB0193
:1005E000CA018F779070A070B07080349105A1051A
:1005F000B10561F447FD0AC0E114F10401051105DC
:1006000029F0405C5F4F6F4F7F4F40781A8EFE1786
:1006100011F081E08A8F4D8F5E8F6F8F78A383E01A
:10062000898FCE0149960E942F06A096E2E10C9494
:10063000DE1EA8E1B0E0EFE1F3E00C94CA1E69838E
:100640007A838B839C832D833E834F835887B9E0C5
:10065000EB2EF12CEC0EFD1ECE010196B7010E948F
:1006600004078E010F5E1F4FCE010596B8010E9450
:1006700004072985223008F47EC03989323010F40D
:10068000B8017CC08A859A8989278A87243011F02D
:10069000223031F4231709F06EC06FED71E06EC0A7
:1006A000343039F41D861E861F86188A1C861B86E8
:1006B00004C0323021F484E08987B7015FC02B8504
:1006C0003C858B899C89281B390B3C872B87ED84C3
:1006D000FE840F851889AD88BE88CF88D88CEA142F
:1006E000FB040C051D0540F4EE0CFF1C001F111F40
:1006F000215030403C872B8720E030E040E050E044
:1007000080E090E0A0E0B0E460E070E0EA14FB0478
:100710000C051D0540F0282B392B4A2B5B2BEA18C2
:10072000FB080C091D09B695A79597958795EE0CC2
:10073000FF1C001F111F6F5F7F4F6F31710531F775
:10074000DA01C9018F779070A070B0708034910584
:10075000A105B10561F427FD0AC0E114F10401050A
:10076000110529F0205C3F4F4F4F5F4F20782D87B8
:100770003E874F87588BBE01675F7F4FCB010E943A
:100780002F066896EAE00C94E61EA8E1B0E0EBECD8
:10079000F3E00C94CE1E69837A838B839C832D8334
:1007A0003E834F83588789E0E82EF12CEC0EFD1E26
:1007B000CE010196B7010E9404078E010F5E1F4F04
:1007C000CE010596B8010E9404078985823040F069
:1007D0008989823028F0C701B8010E947C0701C0D6
:1007E00081E06896E6E00C94EA1EA8E1B0E0EBEF49
:1007F000F3E00C94CE1E69837A838B839C832D83D4
:100800003E834F83588789E0E82EF12CEC0EFD1EC5
:10081000CE010196B7010E9404078E010F5E1F4FA3
:10082000CE010596B8010E9404078985823040F008
:100830008989823028F0C701B8010E947C0701C075
:100840008FEF6896E6E00C94EA1EA8E1B0E0EBE2D8
:10085000F4E00C94CE1E69837A838B839C832D8372
:100860003E834F83588789E0E82EF12CEC0EFD1E65
:10087000CE010196B7010E9404078E010F5E1F4F43
:10088000CE010596B8010E9404078985823040F0A8
:100890008989823028F0C701B8010E947C0701C015
:1008A0008FEF6896E6E00C94EA1EA8E1B0E0EBE575
:1008B000F4E00C94CE1E69837A838B839C832D8312
:1008C0003E834F83588789E0E82EF12CEC0EFD1E05
:1008D000CE010196B7010E9404078E010F5E1F4FE3
:1008E000CE010596B8010E9404078985823040F048
:1008F0008989823028F0C701B8010E947C0701C0B5
:1009000081E06896E6E00C94EA1EA8E1B0E0EBE82E
:10091000F4E00C94CE1E69837A838B839C832D83B1
:100920003E834F83588789E0E82EF12CEC0EFD1EA4
:10093000CE010196B7010E9404078E010F5E1F4F82
:10094000CE010596B8010E9404078985823040F0E7
:100950008989823028F0C701B8010E947C0701C054
:1009600081E06896E6E00C94EA1EA8E0B0E0EBEBCC
:10097000F4E00C94CB1E9B01AC0183E08983DA0187
:10098000C9018827B7FD83959927AA27BB27B82EC9
:10099000211531054105510519F482E089833AC0DA
:1009A0008823A9F0203080E0380780E0480780E8FD
:1009B000580729F460E070E080E09FEC30C0EE243E
:1009C000FF248701E21AF30A040B150B02C0790118
:1009D0008A018EE1C82ED12CDC82CB82ED82FE8290
:1009E0000F831887C801B7010E94E0050197181608
:1009F000190684F4082E04C0EE0CFF1C001F111F02
:100A00000A94D2F7ED82FE820F831887C81AD90A9A
:100A1000DC82CB82BA82CE0101960E942F062896F4
:100A2000E9E00C94E71EACE0B0E0E9E1F5E00C94FD
:100A3000D21E69837A838B839C83CE010196BE018B
:100A40006B5F7F4F0E9404078D81823061F182309D
:100A500050F1843021F48E81882351F12EC02F81F2
:100A6000388537FD20C06E812F3131051CF066239B
:100A7000F9F023C08EE190E0821B930B29853A8523
:100A80004B855C8504C056954795379527958A9583
:100A9000D2F76623B1F050954095309521953F4FA0
:100AA0004F4F5F4F0EC020E030E040E050E009C003
:100AB0002FEF3FEF4FEF5FE704C020E030E040E072
:100AC00050E8B901CA012C96E2E00C94EE1EA8E0B1
:100AD000B0E0EDE6F5E00C94CA1E7B018C016115D7
:100AE00071058105910519F482E0898360C083E076
:100AF00089838EE1C82ED12CDC82CB82ED82FE82EE
:100B00000F831887C801B7010E94E005FC013197E7
:100B1000F7FF3BC0222733272E1B3F0B57016801ED
:100B2000022E04C0D694C794B794A7940A94D2F71F
:100B300040E050E060E070E081E090E0A0E0B0E0F4
:100B400004C0880F991FAA1FBB1F2A95D2F70197CF
:100B5000A109B1098E219F21A023B1230097A105EE
:100B6000B10521F041E050E060E070E04A295B29E6
:100B70006C297D294D835E836F8378878EE190E0B9
:100B80008E1B9F0B9C838B8312C0309781F00E2E9F
:100B900004C0EE0CFF1C001F111F0A94D2F7ED8257
:100BA000FE820F831887CE1ADF0ADC82CB821A827C
:100BB000CE0101960E942F062896EAE00C94E61ECC
:100BC000EF92FF920F931F937B018C0180E0E81658
:100BD00080E0F80681E0080780E0180788F48FEFCE
:100BE000E816F1040105110531F028F088E090E0E5
:100BF000A0E0B0E017C080E090E0A0E0B0E012C05C
:100C000080E0E81680E0F80680E0080781E0180739
:100C100028F088E190E0A0E0B0E004C080E190E03E
:100C2000A0E0B0E020E230E040E050E0281B390BCB
:100C30004A0B5B0B04C016950795F794E7948A95C9
:100C4000D2F7F701E951FE4F8081281B3109410994
:100C50005109C9011F910F91FF90EF900895DF9204
:100C6000EF92FF920F931F93FC01E480F5800681C1
:100C70001781D1808081823048F480E090E0A0E14B
:100C8000B0E0E82AF92A0A2B1B2BA5C0843009F40E
:100C90009FC0823021F4EE24FF24870105C0E114B7
:100CA000F1040105110519F4E0E0F0E096C062815D
:100CB00073819FEF623879070CF05BC022E83FEF49
:100CC000261B370B2A3131052CF020E030E040E0C4
:100CD00050E02AC0B801A701022E04C0769567959E
:100CE000579547950A94D2F781E090E0A0E0B0E0F4
:100CF00004C0880F991FAA1FBB1F2A95D2F701971E
:100D0000A109B1098E219F21A023B1230097A1053C
:100D1000B10521F081E090E0A0E0B0E09A01AB01E4
:100D2000282B392B4A2B5B2BDA01C9018F77907066
:100D3000A070B07080349105A105B10539F427FF8A
:100D400009C0205C3F4F4F4F5F4F04C0215C3F4FB5
:100D50004F4F5F4FE0E0F0E02030A0E03A07A0E026
:100D60004A07A0E45A0710F0E1E0F0E079018A01B7
:100D700027C06038710564F5FB01E158FF4FD801C9
:100D8000C7018F779070A070B07080349105A10575
:100D9000B10539F4E7FE0DC080E490E0A0E0B0E0DA
:100DA00004C08FE390E0A0E0B0E0E80EF91E0A1F57
:100DB0001B1F17FF05C016950795F794E79431960A
:100DC00087E016950795F794E7948A95D1F705C0C3
:100DD000EE24FF248701EFEFF0E06E2F6795662782
:100DE0006795902F9F77D794DD24D7948E2F869583
:100DF000492F462B582F5D29B701CA011F910F912A
:100E0000FF90EF90DF900895FC01DB01408151815C
:100E10002281622F6F7770E0221F2227221F938189
:100E2000892F880F822B282F30E0991F9927991F2F
:100E300011969C93119721153105A9F5411551057E
:100E40006105710511F482E037C082E89FEF1396C7
:100E50009C938E9312979A01AB0167E0220F331F88
:100E6000441F551F6A95D1F783E08C930DC0220F64
:100E7000331F441F551F12968D919C911397019714
:100E800013969C938E931297203080E0380780E071
:100E9000480780E4580758F314962D933D934D93DB
:100EA0005C93179708952F3F310579F4411551054B
:100EB0006105710519F484E08C93089564FF03C003
:100EC00081E08C9312C01C9210C02F5730401396B3
:100ED0003C932E93129783E08C9387E0440F551F29
:100EE000661F771F8A95D1F7706414964D935D93B2
:100EF0006D937C93179708951F93DC01FB019C91E0
:100F0000923008F447C08081823008F443C09430A6
:100F100051F411961C91843099F58181682F70E00D
:100F2000611B71093FC0843021F0923031F482306E
:100F3000B9F18181882389F12DC011961C911197F7
:100F40008230F1F081811817D9F412962D913C91DD
:100F50001397828193818217930794F0281739079A
:100F6000BCF014968D919D910D90BC91A02D248183
:100F7000358146815781281739074A075B0718F4DE
:100F8000112341F00AC082179307A407B50740F464
:100F9000112319F061E070E005C06FEF7FEF02C030
:100FA00060E070E0CB011F910895DF93CF93CDB740
:100FB000DEB7A7E2B0E0E7E2F0E0808180648C93E6
:100FC000A6E2B0E0E6E2F0E0808180688C93A6E2E1
:100FD000B0E0E6E2F0E0808187608C93CF91DF9112
:100FE0000895DF93CF9300D000D00F92CDB7DEB736
:100FF0008D83A7E2B0E0E7E2F0E08081807F8C9310
:10100000A7E2B0E0E7E2F0E090818D81892B8C933C
:10101000AAE3B0E0EAE3F0E08081482F8D81282F39
:1010200030E081E090E0022E02C0880F991F0A9400
:10103000E2F7809584238C93A6E2B0E0E6E2F0E04C
:10104000808180648C93E6E2F0E08081882F90E0DC
:10105000807190700097B9F31C821B821A821982EA
:10106000E4E2F0E080818C83E5E2F0E080818B8334
:101070008B81882F90E09A83898389819A81982F28
:1010800088279A8389838C81282F30E089819A81EF
:10109000822B932B9A838983A6E2B0E0E6E2F0E00C
:1010A000808180618C9389819A810F900F900F903D
:1010B0000F900F90CF91DF910895DF93CF9300D0E1
:1010C000CDB7DEB79A83898389819A81CC01A0E06C
:1010D000B0E02CE330E040E050E0BC01CD010E94E4
:1010E000811EDC01CB01072E7AE0B695A795979576
:1010F00087957A95D1F7702D88960F900F90CF91A4
:10110000DF9108950F931F93DF93CF93CDB7DEB791
:1011100000E210E0E1E2F0E0108220E030E040E0A8
:1011200050E460E070E080E892E40E941903DC0182
:10113000CB01BC01CD010E944900DC01CB01F801CB
:101140008083CF91DF911F910F910895DF93CF930B
:1011500000D00F92CDB7DEB78A83E6E5F0E084EAEF
:101160008083E6E5F0E080818823DCF7E1E2F0E0CF
:101170008081887F89838981883011F01B8220C01B
:10118000E3E2F0E08A818083E6E5F0E084E88083B2
:10119000E6E5F0E080818823DCF7E1E2F0E08081A1
:1011A000887F89838981883119F481E08B8308C025
:1011B0008981803219F482E08B8302C083E08B83C3
:1011C0008B810F900F900F90CF91DF910895DF9357
:1011D000CF9300D00F92CDB7DEB78A83E6E5F0E07B
:1011E00084EA8083E6E5F0E080818823DCF7E1E2B1
:1011F000F0E08081887F89838981803111F01B82B2
:1012000020C0E3E2F0E08A818083E6E5F0E084E854
:101210008083E6E5F0E080818823DCF7E1E2F0E01E
:101220008081887F89838981803419F481E08B8370
:1012300008C08981803219F482E08B8302C083E088
:101240008B838B810F900F900F90CF91DF9108953A
:10125000DF93CF93CDB7DEB7E6E5F0E084E9808396
:10126000E6E5F0E08081882F90E080719070009733
:10127000B9F7CF91DF910895DF93CF9300D0CDB729
:10128000DEB78A83E6E5F0E084EA8083E6E5F0E015
:1012900080818823DCF7E1E2F0E08081887F898328
:1012A0008981883079F7E3E2F0E08A818083E6E59E
:1012B000F0E084E88083E6E5F0E080818823DCF7D5
:1012C000E1E2F0E08081887F89838981883119F0AB
:1012D0000E942809D7CF0F900F90CF91DF910895EA
:1012E000DF93CF9300D00F92CDB7DEB78A83E3E2CE
:1012F000F0E08A818083E6E5F0E084E88083E6E53B
:10130000F0E080818823DCF7E1E2F0E08081887FF3
:1013100089838981883211F41B8208C089818033D6
:1013200019F481E08B8302C082E08B838B810F9064
:101330000F900F90CF91DF910895DF93CF93CDB7AA
:10134000DEB7E6E5F0E084EC8083E6E5F0E080815E
:101350008823DCF7E3E2F0E08081CF91DF9108950C
:10136000DF93CF93CDB7DEB7E6E5F0E084E8808386
:10137000E6E5F0E080818823DCF7E3E2F0E08081BD
:10138000CF91DF910895DF93CF93CDB7DEB7E4E33C
:10139000F0E08CE38083E1E3F0E01082E2E3F0E050
:1013A00088EE8083CF91DF910895DF93CF930F92E2
:1013B000CDB7DEB7A5E3B0E0E5E3F0E080818F7D57
:1013C0008C93A5E3B0E0E5E3F0E080818C618C9341
:1013D000E0E3F0E08081882314F081E08983E0E39A
:1013E000F0E080818295869586958370882F90E0C5
:1013F00081709070009711F482E08983E0E3F0E05F
:101400008081829586958770882F90E0817090709A
:10141000009711F483E08983E0E3F0E08081869512
:1014200086958695882F90E081709070009711F4D2
:1014300084E08983A5E3B0E0E5E3F0E080818F7E7E
:101440008C93A5E3B0E0E5E3F0E080818C628C93BF
:10145000E0E3F0E08081882314F085E08983E0E315
:10146000F0E080818295869586958370882F90E044
:1014700081709070009711F486E08983E0E3F0E0DA
:101480008081829586958770882F90E0817090701A
:10149000009711F487E08983E0E3F0E0808186958E
:1014A00086958695882F90E081709070009711F452
:1014B00088E08983A5E3B0E0E5E3F0E08081877F01
:1014C0008C93A5E3B0E0E5E3F0E0808184638C9346
:1014D000E0E3F0E08081882314F089E08983E0E391
:1014E000F0E080818295869586958370882F90E0C4
:1014F00081709070009711F48AE08983E0E3F0E056
:101500008081829586958770882F90E08170907099
:10151000009711F48BE08983E0E3F0E08081869509
:1015200086958695882F90E081709070009711F4D1
:101530008CE08983A5E3B0E0E5E3F0E080818B7F78
:101540008C93A5E3B0E0E5E3F0E0808188638C93C1
:10155000E0E3F0E08081882314F08DE08983E0E30C
:10156000F0E080818295869586958370882F90E043
:1015700081709070009711F48EE08983E0E3F0E0D1
:101580008081829586958770882F90E08170907019
:10159000009711F48FE08983E0E3F0E08081869585
:1015A00086958695882F90E081709070009711F451
:1015B00080E1898389810F90CF91DF9108950F9306
:1015C0001F93DF93CF93CDB7DEB7CD54D0400FB686
:1015D000F894DEBF0FBECDBFFE01E35BFF4F8083FB
:1015E000ABE3B0E0EBE3F0E08081877F8C93A8E38E
:1015F000B0E0FE01E35BFF4F808182958F70982FF2
:101600009770FE01E35BFF4F8081869586958695F6
:101610008071892B8C93ABE3B0E0EBE3F0E0808149
:1016200084608C93FE01E75BFF4F80E090E0A0E8D0
:10163000BFE380839183A283B3838E010B5B1F4F33
:10164000FE01E75BFF4F608171818281938120E021
:1016500030E04AE753E40E941F02DC01CB01F801AD
:1016600080839183A283B383FE01EB5BFF4F608194
:1016700071818281938120E030E040E85FE30E9445
:101680005504882344F4FE01ED5BFF4F81E090E0B8
:101690009183808364C0FE01EB5BFF4F60817181A9
:1016A0008281938120E03FEF4FE757E40E94F503EA
:1016B00018160CF043C0FE01E75BFF4F608171819B
:1016C0008281938120E030E040E251E40E941F02D9
:1016D000DC01CB018E010D5B1F4FBC01CD010E94CF
:1016E0004900DC01CB01F801918380831FC0FE011A
:1016F000EF5BFF4F89E190E091838083FE01EF5B18
:10170000FF4F808191810197F1F7FE01EF5BFF4F61
:1017100091838083DE01AD5BBF4FFE01ED5BFF4F28
:1017200080819181019711969C938E93FE01ED5BD0
:10173000FF4F808191810097D1F624C08E010D5B0F
:101740001F4FFE01EB5BFF4F6081718182819381AE
:101750000E944900DC01CB01F80191838083FE01E6
:10176000ED5BFF4F80819181FE01FF969183808325
:10177000FE01FF96808191810197F1F7FE01FF96AE
:1017800091838083ABE3B0E0EBE3F0E080818B7F7B
:101790008C9380E090E0A8E4B2E48BAF9CAFADAF57
:1017A000BEAF6BAD7CAD8DAD9EAD2BEA3AEA4AEA99
:1017B0005EE30E941F02DC01CB018FAB98AFA9AFA3
:1017C000BAAF6FA978AD89AD9AAD20E030E040E8BE
:1017D0005FE30E94550488231CF481E08EAB91C026
:1017E0006FA978AD89AD9AAD20E030E04FE753E4C2
:1017F0000E94F50318160CF07BC06BAD7CAD8DAD6F
:101800009EAD20E030E04AE754E40E941903DC0179
:10181000CB018AAB9BABACABBDAB6AA97BA98CA956
:101820009DA920E030E04AE753E40E941F02DC015A
:10183000CB018EA79FA7A8ABB9AB6EA57FA588A942
:1018400099A920E030E040E85FE30E945504882336
:101850002CF481E090E09DA78CA73FC06EA57FA5EA
:1018600088A999A920E03FEF4FE757E40E94F503CC
:1018700018164CF56AA97BA98CA99DA920E030E037
:1018800040E251E40E941F02DC01CB01BC01CD010A
:101890000E944900DC01CB019DA78CA70FC089E104
:1018A00090E09BA78AA78AA59BA50197F1F79BA724
:1018B0008AA78CA59DA501979DA78CA78CA59DA502
:1018C000009769F724C06EA57FA588A999A90E94F1
:1018D0004900DC01CB019DA78CA78CA59DA599A7EC
:1018E00088A788A599A50197F1F799A788A70FC0A0
:1018F0006FA978AD89AD9AAD0E944900DC01CB019A
:101900008EAB8EA98FA38FA18A95F1F78FA3A8E341
:10191000B0E0FE01E35BFF4F8081282F2770FE01BE
:10192000E35BFF4F8081882F90E0880F991F8071C3
:10193000822B8C93ABE3B0E0EBE3F0E0808184603A
:101940008C9380E090E0A0E8BFE38BA39CA3ADA3C1
:10195000BEA36BA17CA18DA19EA120E030E04AE74F
:1019600053E40E941F02DC01CB018F8F98A3A9A32F
:10197000BAA36F8D78A189A19AA120E030E040E858
:101980005FE30E94550488232CF481E090E09E8F51
:101990008D8F3FC06F8D78A189A19AA120E03FEF84
:1019A0004FE757E40E94F50318164CF56BA17CA194
:1019B0008DA19EA120E030E040E251E40E941F0290
:1019C000DC01CB01BC01CD010E944900DC01CB014F
:1019D0009E8F8D8F0FC089E190E09C8F8B8F8B8DB8
:1019E0009C8D0197F1F79C8F8B8F8D8D9E8D01972C
:1019F0009E8F8D8F8D8D9E8D009769F714C06F8D92
:101A000078A189A19AA10E944900DC01CB019E8F97
:101A10008D8F8D8D9E8D9A8F898F898D9A8D01974F
:101A2000F1F79A8F898FABE3B0E0EBE3F0E08081D0
:101A30008B7F8C9380E090E0A8E4B2E48D8B9E8B4A
:101A4000AF8BB88F6D897E898F89988D2BEA3AEAA2
:101A50004AEA5EE30E941F02DC01CB01898B9A8B6C
:101A6000AB8BBC8B69897A898B899C8920E030E0BB
:101A700040E85FE30E94550488231CF481E0888BD2
:101A800091C069897A898B899C8920E030E04FE791
:101A900053E40E94F50318160CF07BC06D897E8913
:101AA0008F89988D20E030E04AE754E40E941903C2
:101AB000DC01CB018C879D87AE87BF876C857D85D8
:101AC0008E859F8520E030E04AE753E40E941F02A4
:101AD000DC01CB0188879987AA87BB8768857985D0
:101AE0008A859B8520E030E040E85FE30E94550452
:101AF00088232CF481E090E09F838E833FC068852B
:101B000079858A859B8520E03FEF4FE757E40E9467
:101B1000F50318164CF56C857D858E859F8520E034
:101B200030E040E251E40E941F02DC01CB01BC0125
:101B3000CD010E944900DC01CB019F838E830FC041
:101B400089E190E09D838C838C819D810197F1F7E1
:101B50009D838C838E819F8101979F838E838E814D
:101B60009F81009769F724C0688579858A859B8560
:101B70000E944900DC01CB019F838E838E819F816F
:101B80009B838A838A819B810197F1F79B838A8358
:101B90000FC069897A898B899C890E944900DC0180
:101BA000CB01888B8889898389818A95F1F789831C
:101BB000C35BDF4F0FB6F894DEBF0FBECDBFCF9132
:101BC000DF911F910F9108950F931F93DF93CF9390
:101BD000CDB7DEB7CD54D0400FB6F894DEBF0FBE00
:101BE000CDBFFE01E35BFF4F8083ABE3B0E0EBE3EF
:101BF000F0E0808188608C93A8E3B0E0FE01E35BB5
:101C0000FF4F808182958F70982F9770FE01E35B64
:101C1000FF4F80818695869586958071892B8C9360
:101C2000ABE3B0E0EBE3F0E0808184608C93FE01F5
:101C3000E75BFF4F80E090E0A0E8BFE38083918303
:101C4000A283B3838E010B5B1F4FFE01E75BFF4F47
:101C5000608171818281938120E030E04AE753E422
:101C60000E941F02DC01CB01F80180839183A283D3
:101C7000B383FE01EB5BFF4F6081718182819381B1
:101C800020E030E040E85FE30E945504882344F4FC
:101C9000FE01ED5BFF4F81E090E09183808364C0A3
:101CA000FE01EB5BFF4F608171818281938120E0B7
:101CB0003FEF4FE757E40E94F50318160CF043C0BE
:101CC000FE01E75BFF4F608171818281938120E09B
:101CD00030E040E251E40E941F02DC01CB018E01A2
:101CE0000D5B1F4FBC01CD010E944900DC01CB01FF
:101CF000F801918380831FC0FE01EF5BFF4F89E1F4
:101D000090E091838083FE01EF5BFF4F80819181A2
:101D10000197F1F7FE01EF5BFF4F91838083DE01B6
:101D2000AD5BBF4FFE01ED5BFF4F8081918101975D
:101D300011969C938E93FE01ED5BFF4F8081918104
:101D40000097D1F624C08E010D5B1F4FFE01EB5BA7
:101D5000FF4F60817181828193810E944900DC0183
:101D6000CB01F80191838083FE01ED5BFF4F808101
:101D70009181FE01FF9691838083FE01FF96808111
:101D800091810197F1F7FE01FF9691838083ABE388
:101D9000B0E0EBE3F0E080818B7F8C9380E090E01B
:101DA000A8E4B2E48BAF9CAFADAFBEAF6BAD7CAD82
:101DB0008DAD9EAD2BEA3AEA4AEA5EE30E941F022D
:101DC000DC01CB018FAB98AFA9AFBAAF6FA978ADEB
:101DD00089AD9AAD20E030E040E85FE30E94550411
:101DE00088231CF481E08EAB91C06FA978AD89ADDA
:101DF0009AAD20E030E04FE753E40E94F503181657
:101E00000CF07BC06BAD7CAD8DAD9EAD20E030E0C5
:101E10004AE754E40E941903DC01CB018AAB9BAB77
:101E2000ACABBDAB6AA97BA98CA99DA920E030E031
:101E30004AE753E40E941F02DC01CB018EA79FA753
:101E4000A8ABB9AB6EA57FA588A999A920E030E021
:101E500040E85FE30E94550488232CF481E090E081
:101E60009DA78CA73FC06EA57FA588A999A920E052
:101E70003FEF4FE757E40E94F50318164CF56AA9A7
:101E80007BA98CA99DA920E030E040E251E40E94AA
:101E90001F02DC01CB01BC01CD010E944900DC0125
:101EA000CB019DA78CA70FC089E190E09BA78AA7D3
:101EB0008AA59BA50197F1F79BA78AA78CA59DA54D
:101EC00001979DA78CA78CA59DA5009769F724C0B5
:101ED0006EA57FA588A999A90E944900DC01CB01C4
:101EE0009DA78CA78CA59DA599A788A788A599A52E
:101EF0000197F1F799A788A70FC06FA978AD89ADB1
:101F00009AAD0E944900DC01CB018EAB8EA98FA354
:101F10008FA18A95F1F78FA3A8E3B0E0FE01E35B00
:101F2000FF4F8081282F2770FE01E35BFF4F8081E8
:101F3000882F90E0880F991F8071822B8C93ABE3E0
:101F4000B0E0EBE3F0E0808184608C9380E090E08F
:101F5000A0E8BFE38BA39CA3ADA3BEA36BA17CA110
:101F60008DA19EA120E030E04AE753E40E941F02C9
:101F7000DC01CB018F8F98A3A9A3BAA36F8D78A1A1
:101F800089A19AA120E030E040E85FE30E94550477
:101F900088232CF481E090E09E8F8D8F3FC06F8D61
:101FA00078A189A19AA120E03FEF4FE757E40E9472
:101FB000F50318164CF56BA17CA18DA19EA120E024
:101FC00030E040E251E40E941F02DC01CB01BC0181
:101FD000CD010E944900DC01CB019E8F8D8F0FC087
:101FE00089E190E09C8F8B8F8B8D9C8D0197F1F711
:101FF0009C8F8B8F8D8D9E8D01979E8F8D8F8D8D5C
:102000009E8D009769F714C06F8D78A189A19AA160
:102010000E944900DC01CB019E8F8D8F8D8D9E8D9E
:102020009A8F898F898D9A8D0197F1F79A8F898F71
:10203000ABE3B0E0EBE3F0E080818B7F8C9380E05A
:1020400090E0A8E4B2E48D8B9E8BAF8BB88F6D8946
:102050007E898F89988D2BEA3AEA4AEA5EE30E94EC
:102060001F02DC01CB01898B9A8BAB8BBC8B6989FE
:102070007A898B899C8920E030E040E85FE30E9408
:10208000550488231CF481E0888B91C069897A8982
:102090008B899C8920E030E04FE753E40E94F503F0
:1020A00018160CF07BC06D897E898F89988D20E091
:1020B00030E04AE754E40E941903DC01CB018C872D
:1020C0009D87AE87BF876C857D858E859F8520E047
:1020D00030E04AE753E40E941F02DC01CB0188870D
:1020E0009987AA87BB87688579858A859B8520E043
:1020F00030E040E85FE30E94550488232CF481E03F
:1021000090E09F838E833FC0688579858A859B8513
:1021100020E03FEF4FE757E40E94F50318164CF517
:102120006C857D858E859F8520E030E040E251E41E
:102130000E941F02DC01CB01BC01CD010E944900BD
:10214000DC01CB019F838E830FC089E190E09D83EA
:102150008C838C819D810197F1F79D838C838E8187
:102160009F8101979F838E838E819F81009769F75E
:1021700024C0688579858A859B850E944900DC0199
:10218000CB019F838E838E819F819B838A838A81EB
:102190009B810197F1F79B838A830FC069897A89B4
:1021A0008B899C890E944900DC01CB01888B88893E
:1021B000898389818A95F1F78983C35BDF4F0FB6E5
:1021C000F894DEBF0FBECDBFCF91DF911F910F916D
:1021D0000895DF93CF93CDB7DEB76C970FB6F89421
:1021E000DEBF0FBECDBFE7E3F0E08FEF8083EAE311
:1021F000F0E08FEF8083E8E3F0E01082ABE3B0E043
:10220000EBE3F0E080818B7F8C9383E30E94DF0A15
:1022100082E30E94DF0A88E20E94DF0A8EE00E94C9
:10222000DF0A81E00E94DF0A80E090E0A0E0B0E4F5
:10223000898F9A8FAB8FBC8F698D7A8D8B8D9C8D9A
:1022400020E030E04AE753E40E941F02DC01CB01AA
:102250008D8B9E8BAF8BB88F6D897E898F89988D82
:1022600020E030E040E85FE30E94550488232CF42E
:1022700081E090E09C8B8B8B3FC06D897E898F893C
:10228000988D20E03FEF4FE757E40E94F5031816C2
:102290004CF5698D7A8D8B8D9C8D20E030E040E28D
:1022A00051E40E941F02DC01CB01BC01CD010E9460
:1022B0004900DC01CB019C8B8B8B0FC089E190E046
:1022C0009A8B898B89899A890197F1F79A8B898BE7
:1022D0008B899C8901979C8B8B8B8B899C89009720
:1022E00069F714C06D897E898F89988D0E94490095
:1022F000DC01CB019C8B8B8B8B899C89988B8F8786
:102300008F8598890197F1F7988B8F8786E00E94D7
:10231000DF0A80E090E0A0E0B0E48B879C87AD8787
:10232000BE876B857C858D859E8520E030E04AE701
:1023300053E40E941F02DC01CB018F839887A98799
:10234000BA876F81788589859A8520E030E040E8FA
:102350005FE30E94550488232CF481E090E09E8383
:102360008D833FC06F81788589859A8520E03FEF16
:102370004FE757E40E94F50318164CF56B857C85F2
:102380008D859E8520E030E040E251E40E941F02EE
:10239000DC01CB01BC01CD010E944900DC01CB0175
:1023A0009E838D830FC089E190E09C838B838B811A
:1023B0009C810197F1F79C838B838D819E8101978E
:1023C0009E838D838D819E81009769F714C06F81F4
:1023D000788589859A850E944900DC01CB019E831E
:1023E0008D838D819E819A83898389819A810197CA
:1023F000F1F79A8389836C960FB6F894DEBF0FBE0F
:10240000CDBFCF91DF910895DF93CF9300D00F928E
:10241000CDB7DEB79B838A8319820EC08981282FAE
:1024200030E08A819B81FC01E20FF31F80810E94D2
:10243000E40D89818F5F89838981282F30E08A812B
:102440009B81FC01E20FF31F8081882339F70F90F5
:102450000F900F90CF91DF910895DF93CF9300D02D
:1024600000D0CDB7DEB789836A835C834B838981D3
:10247000813049F48A81803130F48A818F7080689C
:102480000E94DF0A23C08981823049F48A81803129
:1024900030F48A818F70806C0E94DF0A17C08981B6
:1024A000833049F48A81803130F48A818B70846969
:1024B0000E94DF0A0BC08981843041F48A81803117
:1024C00028F48A818B70846D0E94DF0A8B819C8145
:1024D0000E9404120F900F900F900F90CF91DF91F8
:1024E0000895DF93CF9300D0CDB7DEB789836A8399
:1024F0008A81282F30E081E090E0022E02C0880F10
:10250000991F0A94E2F7982F8981892B89830F906C
:102510000F90CF91DF910895DF93CF9300D0CDB787
:10252000DEB789836A838A81282F30E081E090E0DA
:10253000022E02C0880F991F0A94E2F7982F9095F7
:102540008981892389830F900F90CF91DF9108951E
:10255000DF93CF93CDB7DEB70E94D5070E94E91075
:102560000E94C3090E9482080E94221DA7E3B0E0D6
:10257000E7E3F0E0808180688C93AAE3B0E0EAE3CF
:10258000F0E0808180618C93A4E3B0E0E4E3F0E0CC
:10259000808180688C93A4E3B0E0E4E3F0E0808184
:1025A00080648C93AAE3B0E0EAE3F0E08081806885
:1025B0008C93AAE3B0E0EAE3F0E080818E7F8C9315
:1025C00080EC0E94DF0A81E00E94DF0A1092F6028E
:1025D0001092F7021092F8021092F9021092FA0289
:1025E0001092FB021092FC021092FD021092FE0269
:1025F0001092FF0210920003109201030E94E91052
:1026000082E00E94DF0A20E630E081E061E0A9017B
:102610000E942D1228E630E082E061E0A9010E94CC
:102620002D122AE730E083E061E0A9010E942D121B
:102630000E94D5098093750380917503813019F448
:102640000E943D13C3CF80917503823009F0BECF45
:102650000E944A1ABBCF1F920F920FB60F921124FD
:10266000DF93CF93CDB7DEB71092EF02CF91DF911A
:102670000F900FBE0F901F901895AF92BF92CF9200
:10268000DF92EF92FF920F931F93DF93CF93CDB71B
:10269000DEB7C655D0400FB6F894DEBF0FBECDBF33
:1026A00081E08093EE0281E00E94DF0A31C429E8D4
:1026B00030E081E061E0A9010E942D1228E930E0BC
:1026C00082E061E0A9010E942D1225EA30E083E05A
:1026D00061E0A9010E942D120E94D5098093750323
:1026E00080917503853009F0FEC08DE28093E80289
:1026F00088E691E0A0E0B0E08093E9029093EA02DE
:10270000A093EB02B093EC0281E00E94DF0A82E02A
:102710000E94DF0A2AEA30E081E061E0A9010E941C
:102720002D122EEB30E082E061E0A9010E942D1213
:102730008091E802282F30E000D000D000D0EDB723
:10274000FEB7319681E693E09183808380ED90E03F
:1027500093838283358324830E94F91E6DB77EB7ED
:102760006A5F7F4F0FB6F8947EBF0FBE6DBF21E644
:1027700033E083E061E0A9010E942D12FE01EF5ACF
:10278000FF4F80E090E4ACE1B6E480839183A283C4
:10279000B3838E01035B1F4FFE01EF5AFF4F608131
:1027A00071818281938120E030E04AE753E40E9406
:1027B0001F02DC01CB01F80180839183A283B383E4
:1027C000FE01E35BFF4F608171818281938120E094
:1027D00030E040E85FE30E945504882344F4FE01A2
:1027E000E55BFF4F81E090E09183808364C0FE0150
:1027F000E35BFF4F608171818281938120E03FEF35
:102800004FE757E40E94F50318160CF043C0FE0191
:10281000EF5AFF4F608171818281938120E030E027
:1028200040E251E40E941F02DC01CB018E01055BF6
:102830001F4FBC01CD010E944900DC01CB01F80112
:10284000918380831FC0FE01E75BFF4F89E190E029
:1028500091838083FE01E75BFF4F80819181019727
:10286000F1F7FE01E75BFF4F91838083DE01A55BFB
:10287000BF4FFE01E55BFF4F80819181019711966B
:102880009C938E93FE01E55BFF4F808191810097C1
:10289000D1F657C38E01055B1F4FFE01E35BFF4F6F
:1028A00060817181828193810E944900DC01CB01AA
:1028B000F80191838083DE01A95BBF4FFE01E55BD8
:1028C000FF4F8081918111969C938E93FE01E95B6D
:1028D000FF4F808191810197F1F7FE01E95BFF4F86
:1028E000918380832EC380917503863009F0CFC019
:1028F00081E48093E80288E691E0A0E0B0E0809374
:10290000E9029093EA02A093EB02B093EC0281E01B
:102910000E94DF0A82E00E94DF0A22EE30E081E0BE
:1029200061E0A9010E942D1226EF30E082E061E013
:10293000A9010E942D128091E802282F30E000D0DA
:1029400000D000D0EDB7FEB7319681E693E09183D9
:10295000808380ED90E093838283358324830E947B
:10296000F91E6DB77EB76A5F7F4F0FB6F8947EBFD2
:102970000FBE6DBF21E633E083E061E0A9010E9454
:102980002D12FE01ED5BFF4F80E090E4ACE1B6E478
:1029900080839183A283B3838E01015C1F4FFE016C
:1029A000ED5BFF4F608171818281938120E030E097
:1029B0004AE753E40E941F02DC01CB01F801808347
:1029C0009183A283B383FE01FF966081718182812E
:1029D000938120E030E040E85FE30E9455048823C3
:1029E0002CF481E090E09EAF8DAF46C0FE01FF96D3
:1029F000608171818281938120E03FEF4FE757E44E
:102A00000E94F503181664F5FE01ED5BFF4F60812F
:102A100071818281938120E030E040E251E40E94A4
:102A20001F02DC01CB01BC01CD010E944900DC0189
:102A3000CB019EAF8DAF0FC089E190E09CAF8BAF13
:102A40008BAD9CAD0197F1F79CAF8BAF8DAD9EAD7B
:102A500001979EAF8DAF8DAD9EAD009769F771C2A6
:102A6000FE01FF9660817181828193810E944900FD
:102A7000DC01CB019EAF8DAF8DAD9EAD9AAF89AF1E
:102A800089AD9AAD0197F1F79AAF89AF5AC280919B
:102A90007503873009F0BCC087E38093E80288E5BE
:102AA00092E0A0E0B0E08093E9029093EA02A09364
:102AB000EB02B093EC0281E00E94DF0A82E00E9408
:102AC000DF0A2AE031E081E061E0A9010E942D12D5
:102AD0002EE131E082E061E0A9010E942D12809197
:102AE000E802282F30E000D000D000D0EDB7FEB7CC
:102AF000319681E693E09183808380ED90E093832B
:102B00008283358324830E94F91E6DB77EB76A5F86
:102B10007F4F0FB6F8947EBF0FBE6DBF21E633E046
:102B200083E061E0A9010E942D1280E090E4ACE115
:102B3000B6E48DAB9EABAFABB8AF6DA97EA98FA944
:102B400098AD20E030E04AE753E40E941F02DC0128
:102B5000CB0189AB9AABABABBCAB69A97AA98BA90A
:102B60009CA920E030E040E85FE30E945504882300
:102B70002CF481E090E098AB8FA73FC069A97AA9B7
:102B80008BA99CA920E03FEF4FE757E40E94F50393
:102B900018164CF56DA97EA98FA998AD20E030E0FC
:102BA00040E251E40E941F02DC01CB01BC01CD01D7
:102BB0000E944900DC01CB0198AB8FA70FC089E1CF
:102BC00090E09EA78DA78DA59EA50197F1F79EA7E2
:102BD0008DA78FA598A9019798AB8FA78FA598A9C6
:102BE000009769F7AEC169A97AA98BA99CA90E942F
:102BF0004900DC01CB0198AB8FA78FA598A99CA7B2
:102C00008BA78BA59CA50197F1F79CA78BA799C1D2
:102C100080917503883009F0BBC080E58093E8029D
:102C200080EF90E0A0E0B0E08093E9029093EA02A8
:102C3000A093EB02B093EC0281E00E94DF0A82E0F5
:102C40000E94DF0A22E331E081E061E0A9010E94F5
:102C50002D1226E431E082E061E0A9010E942D12EC
:102C60008091E802282F30E000D000D000D0EDB7EE
:102C7000FEB7319681E693E09183808380ED90E00A
:102C800093838283358324830E94F91E8DB79EB778
:102C900006960FB6F8949EBF0FBE8DBF21E633E0B7
:102CA00083E061E0A9010E942D1280E090E4ACE194
:102CB000B6E48FA398A7A9A7BAA76FA178A589A5FD
:102CC0009AA520E030E04AE753E40E941F02DC01AD
:102CD000CB018BA39CA3ADA3BEA36BA17CA18DA1B3
:102CE0009EA120E030E040E85FE30E945504882385
:102CF0002CF481E090E09AA389A33FC06BA17CA152
:102D00008DA19EA120E03FEF4FE757E40E94F5031D
:102D100018164CF56FA178A589A59AA520E030E09A
:102D200040E251E40E941F02DC01CB01BC01CD0155
:102D30000E944900DC01CB019AA389A30FC089E15D
:102D400090E098A38F8F8F8D98A10197F1F798A3AA
:102D50008F8F89A19AA101979AA389A389A19AA18A
:102D6000009769F7EEC06BA17CA18DA19EA10E9486
:102D70004900DC01CB019AA389A389A19AA19E8F66
:102D80008D8F8D8D9E8D0197F1F79E8F8D8FD9C080
:102D900080917503893009F0BBC085E58093E80216
:102DA0008CE291E0A0E0B0E08093E9029093EA0227
:102DB000A093EB02B093EC0281E00E94DF0A82E074
:102DC0000E94DF0A2AE531E081E061E0A9010E946A
:102DD0002D122EE631E082E061E0A9010E942D1261
:102DE0008091E802282F30E000D000D000D0EDB76D
:102DF000FEB7319681E693E09183808380ED90E089
:102E000093838283358324830E94F91EEDB7FEB736
:102E100036960FB6F894FEBF0FBEEDBF21E633E045
:102E200083E061E0A9010E942D1280E090E4ACE112
:102E3000B6E4898F9A8FAB8FBC8F698D7A8D8B8D1D
:102E40009C8D20E030E04AE753E40E941F02DC0141
:102E5000CB018D8B9E8BAF8BB88F6D897E898F89CF
:102E6000988D20E030E040E85FE30E94550488231D
:102E70002CF481E090E09C8B8B8B3FC06D897E8928
:102E80008F89988D20E03FEF4FE757E40E94F503CC
:102E900018164CF5698D7A8D8B8D9C8D20E030E075
:102EA00040E251E40E941F02DC01CB01BC01CD01D4
:102EB0000E944900DC01CB019C8B8B8B0FC089E108
:102EC00090E09A8B898B89899A890197F1F79A8B7F
:102ED000898B8B899C8901979C8B8B8B8B899C8997
:102EE000009769F72EC06D897E898F89988D0E9421
:102EF0004900DC01CB019C8B8B8B8B899C89988B47
:102F00008F878F8598890197F1F7988B8F8719C0E4
:102F100080917503853009F0CACB809175038630A6
:102F200009F0C5CB80917503873009F0C0CB809143
:102F30007503883009F0BBCB80917503893009F0A7
:102F4000B6CB81E00E94DF0A19C021E831E081E0C0
:102F500061E0A9010E942D120E94D509809375039A
:102F600080917503833051F481E08093EF0281E01A
:102F70000E94DF0A82E00E94DF0A04C0809175038C
:102F8000833019F780E00E94651D80910303482F6C
:102F900050E080911903282F30E08CE390E0BC01D1
:102FA000269FC001279F900D369F900D1124840FFE
:102FB000951FAA2797FDA095BA2F8093F6029093AC
:102FC000F702A093F802B093F902B1C1ABE3B0E00D
:102FD000EBE3F0E0808180618C9381E00E94F10757
:102FE0009093F3028093F2028091F2029091F302A7
:102FF000CC01A0E0B0E0BC01CD010E946705DC017E
:10300000CB01BC01CD0127ED33EA40E050E40E9442
:103010001903DC01CB01BC01CD010E944900DC0198
:10302000CB018093ED0280E00E94651D0E949E1DF1
:103030008091ED02282F30E000D000D000D0EDB715
:10304000FEB7319685E093E09183808380ED90E038
:1030500093838283358324830E94F91E8DB79EB7A4
:1030600006960FB6F8949EBF0FBE8DBF25E033E0E5
:1030700082E061E0A9010E942D122EE831E083E098
:1030800061E0A9010E942D128091ED02882F90E04D
:10309000AA2797FDA095BA2FBC01CD010E94B504C7
:1030A0005B016C018091E802882F90E0AA2797FDD0
:1030B000A095BA2FBC01CD010E94B5047B018C0103
:1030C0008091E802882F90E0AA2797FDA095BA2F5B
:1030D000BC01CD010E94B504DC01CB01BC01CD01D6
:1030E0002DEC3CEC4CEC5DEB0E941F02DC01CB01B3
:1030F0009C01AD01C801B7010E94F201DC01CB01C6
:103100009C01AD01C601B5010E94550488236CF4F1
:10311000E5E3F0E0808167E00E947112EBE3F0E00C
:10312000808167E00E94711202C18091ED02882FB8
:1031300090E0AA2797FDA095BA2FBC01CD010E946F
:10314000B5045B016C018091E802882F90E0AA270A
:1031500097FDA095BA2FBC01CD010E94B5047B015B
:103160008C018091E802882F90E0AA2797FDA09516
:10317000BA2FBC01CD010E94B504DC01CB01BC011A
:10318000CD012DEC3CEC4CEC5DEB0E941F02DC0110
:10319000CB019C01AD01C801B7010E94F201DC0125
:1031A000CB019C01AD0167961FAE6797C601B501C3
:1031B0000E942504882324F091E067969FAF6797CB
:1031C00081E06796EFAD67978E27882309F05FC08F
:1031D0008091ED02882F90E0AA2797FDA095BA2F45
:1031E000BC01CD010E94B5045B016C018091E80235
:1031F000882F90E0AA2797FDA095BA2FBC01CD019A
:103200000E94B5047B018C018091E802882F90E038
:10321000AA2797FDA095BA2FBC01CD010E94B50445
:10322000DC01CB01BC01CD012DEC3CEC4CEC5DE3B1
:103230000E941F02DC01CB019C01AD01C801B70156
:103240000E94F201DC01CB019C01AD0166961FAE2C
:103250006697C601B5010E948504181624F0F1E0B6
:103260006696FFAF669781E066966FAD6697862794
:10327000882369F4E5E3F0E0808167E00E948C1226
:10328000EBE3F0E0808167E00E94711250C0809112
:10329000ED02882F90E0AA2797FDA095BA2FBC01D8
:1032A000CD010E94B5045B016C018091E802882F7A
:1032B00090E0AA2797FDA095BA2FBC01CD010E94EE
:1032C000B5047B018C018091E802882F90E0AA2749
:1032D00097FDA095BA2FBC01CD010E94B504DC0179
:1032E000CB01BC01CD012AE037ED43E25CEB0E944B
:1032F0001F02DC01CB019C01AD01C801B7010E9496
:10330000F201DC01CB019C01AD01C601B5010E94B7
:10331000C503882361F4E5E3F0E0808167E00E9463
:103320008C12EBE3F0E0808167E00E948C128091C8
:10333000EF02813009F44ACEEBE3F0E0808167E0F0
:103340000E948C12E5E3F0E0808167E00E948C121D
:10335000A8E3B0E0E8E3F0E0808180688C93A5E327
:10336000B0E0E5E3F0E0808180648C9381E00E942E
:10337000DF0A82E00E94DF0A2FE931E081E061E0AC
:10338000A9010E942D1280E090E4ACE1B6E48B87A5
:103390009C87AD87BE876B857C858D859E8520E06B
:1033A00030E04AE753E40E941F02DC01CB018F8327
:1033B0009887A987BA876F81788589859A8520E063
:1033C00030E040E85FE30E94550488232CF481E05C
:1033D00090E09E838D833FC06F81788589859A8533
:1033E00020E03FEF4FE757E40E94F50318164CF535
:1033F0006B857C858D859E8520E030E040E251E440
:103400000E941F02DC01CB01BC01CD010E944900DA
:10341000DC01CB019E838D830FC089E190E09C830A
:103420008B838B819C810197F1F79C838B838D81AA
:103430009E8101979E838D838D819E81009769F780
:1034400014C06F81788589859A850E944900DC01C6
:10345000CB019E838D838D819E819A83898389810F
:103460009A810197F1F79A83898381E00E94DF0AAC
:10347000CA5ADF4F0FB6F894DEBF0FBECDBFCF9153
:10348000DF911F910F91FF90EF90DF90CF90BF9051
:10349000AF900895AF92BF92CF92DF92EF92FF92DA
:1034A0000F931F93DF93CF93CDB7DEB760970FB61F
:1034B000F894DEBF0FBECDBF1092EE0281E00E94F5
:1034C000DF0A55C029EA31E081E061E0A9010E94EC
:1034D0002D122AEB31E082E061E0A9010E942D1259
:1034E00080E00E94F1079093F1028093F0028091B6
:1034F000F0029091F1020E945D088093E8028091B1
:10350000E802282F30E000D000D000D0EDB7FEB7A1
:10351000319681E693E09183808380ED90E0938300
:103520008283358324830E94F91E8DB79EB7069649
:103530000FB6F8949EBF0FBE8DBF21E633E083E047
:1035400061E0A9010E942D1226EC31E084E061E0E7
:10355000A9010E942D120E94D509809375038091C4
:103560007503833021F481E08093EF0205C08091E0
:103570007503833009F0A6CF81E00E94DF0AA2C163
:103580000E94E910ABE3B0E0EBE3F0E08081806102
:103590008C9381E00E94F1079093F3028093F202F2
:1035A0008091F2029091F302CC01A0E0B0E0BC0166
:1035B000CD010E946705DC01CB01BC01CD0127EDE7
:1035C00033EA40E050E40E941903DC01CB01BC0166
:1035D000CD010E944900DC01CB018093ED02809176
:1035E000ED02282F30E000D000D000D0EDB7FEB7BC
:1035F000319685E093E09183808380ED90E0938322
:103600008283358324830E94F91E8DB79EB7069668
:103610000FB6F8949EBF0FBE8DBF25E033E082E069
:1036200061E0A9010E942D122EE831E083E061E003
:10363000A9010E942D128091ED02882F90E0AA2707
:1036400097FDA095BA2FBC01CD010E94B5045B0186
:103650006C018091E802882F90E0AA2797FDA09541
:10366000BA2FBC01CD010E94B5047B018C01809171
:10367000E802882F90E0AA2797FDA095BA2FBC01F9
:10368000CD010E94B504DC01CB01BC01CD012DECC4
:103690003CEC4CEC5DEB0E941F02DC01CB019C0179
:1036A000AD01C801B7010E94F201DC01CB019C0110
:1036B000AD01C601B5010E94550488236CF4E5E311
:1036C000F0E0808167E00E947112EBE3F0E080811E
:1036D00067E00E947112F6C08091ED02882F90E0A1
:1036E000AA2797FDA095BA2FBC01CD010E94B50471
:1036F0005B016C018091E802882F90E0AA2797FD7A
:10370000A095BA2FBC01CD010E94B5047B018C01AC
:103710008091E802882F90E0AA2797FDA095BA2F04
:10372000BC01CD010E94B504DC01CB01BC01CD017F
:103730002DEC3CEC4CEC5DEB0E941F02DC01CB015C
:103740009C01AD01C801B7010E94F201DC01CB016F
:103750009C01AD01188AC601B5010E942504882389
:1037600014F091E0988B81E098898927882309F0EB
:1037700059C08091ED02882F90E0AA2797FDA0956F
:10378000BA2FBC01CD010E94B5045B016C01809190
:10379000E802882F90E0AA2797FDA095BA2FBC01D8
:1037A000CD010E94B5047B018C018091E802882F35
:1037B00090E0AA2797FDA095BA2FBC01CD010E94E9
:1037C000B504DC01CB01BC01CD012DEC3CEC4CEC93
:1037D0005DE30E941F02DC01CB019C01AD01C80129
:1037E000B7010E94F201DC01CB019C01AD011F86F3
:1037F000C601B5010E948504181614F081E08F8778
:1038000081E09F858927882369F4E5E3F0E08081E2
:1038100067E00E948C12EBE3F0E0808167E00E9499
:10382000711250C08091ED02882F90E0AA2797FD79
:10383000A095BA2FBC01CD010E94B5045B016C01BB
:103840008091E802882F90E0AA2797FDA095BA2FD3
:10385000BC01CD010E94B5047B018C018091E8027E
:10386000882F90E0AA2797FDA095BA2FBC01CD0123
:103870000E94B504DC01CB01BC01CD012AE037ED8B
:1038800043E25CEB0E941F02DC01CB019C01AD0115
:10389000C801B7010E94F201DC01CB019C01AD011E
:1038A000C601B5010E94C503882361F4E5E3F0E099
:1038B000808167E00E948C12EBE3F0E0808167E09A
:1038C0000E948C128091EF02813009F459CEEBE313
:1038D000F0E0808167E00E948C12E5E3F0E08081F7
:1038E00067E00E948C12A8E3B0E0E8E3F0E080819A
:1038F00080688C93A5E3B0E0E5E3F0E0808180642C
:103900008C9381E00E94DF0A82E00E94DF0A2FE9A7
:1039100031E081E061E0A9010E942D1280E090E495
:10392000ACE1B6E48B879C87AD87BE876B857C85D1
:103930008D859E8520E030E04AE753E40E941F0217
:10394000DC01CB018F839887A987BA876F8178853F
:1039500089859A8520E030E040E85FE30E945504C5
:1039600088232CF481E090E09E838D833FC06F819B
:10397000788589859A8520E03FEF4FE757E40E94DC
:10398000F50318164CF56B857C858D859E8520E0AA
:1039900030E040E251E40E941F02DC01CB01BC0197
:1039A000CD010E944900DC01CB019E838D830FC0B5
:1039B00089E190E09C838B838B819C810197F1F757
:1039C0009C838B838D819E8101979E838D838D81C6
:1039D0009E81009769F714C06F81788589859A85E3
:1039E0000E944900DC01CB019E838D838D819E81E5
:1039F0009A83898389819A810197F1F79A838983D0
:103A000081E00E94DF0AA8E3B0E0E8E3F0E0808113
:103A10008F778C93A5E3B0E0E5E3F0E080818F7BC6
:103A20008C9360960FB6F894DEBF0FBECDBFCF91DA
:103A3000DF911F910F91FF90EF90DF90CF90BF909B
:103A4000AF900895DF93CF93CDB7DEB7ABE5B0E08D
:103A5000EBE5F0E0808180688C93A5E5B0E0E5E5DA
:103A6000F0E080818B7F8C93A5E5B0E0E5E5F0E0A8
:103A70008081877F8C937894CF91DF910895DF9335
:103A8000CF9300D0CDB7DEB79A83898389819A819D
:103A90009C0135952795359527953595279535952D
:103AA0002795C901880F991F820F931F880F991FAF
:103AB00022273327281B390B89819A81820F931F74
:103AC0000F900F90CF91DF910895DF93CF930F92D6
:103AD000CDB7DEB7898380ED0E94A60889810E9458
:103AE000700981ED0E94E7080E949D0980930303FD
:103AF00080910303882F90E00E943F1D8093030371
:103B00000E949D098093190380911903882F90E0EA
:103B10000E943F1D809319030E94B00980936003A7
:103B200080916003882F90E00E943F1D8093600386
:103B30000E9428090F90CF91DF910895EF92FF9294
:103B40000F931F93DF93CF9300D000D0CDB7DEB794
:103B500080910303482F50E080911903282F30E013
:103B60008CE390E07C012E9DC0012F9D900D3E9D29
:103B7000900D1124840F951FAA2797FDA095BA2FA9
:103B80008093FA029093FB02A093FC02B093FD0293
:103B90002091FA023091FB024091FC025091FD020B
:103BA0008091F6029091F702A091F802B091F9028B
:103BB00079018A01E81AF90A0A0B1B0BD801C7011F
:103BC0008093FE029093FF02A0930003B093010341
:103BD0002091FE023091FF024091000350910103B9
:103BE0008091E9029091EA02A091EB02B091EC027F
:103BF00082179307A407B50708F478C02091E9025B
:103C00003091EA024091EB025091EC028091FE0269
:103C10009091FF02A0910003B091010379018A0104
:103C2000E81AF90A0A0B1B0BD801C70189839A838A
:103C3000AB83BC8389819A81AB81BC812CE330E06A
:103C400040E050E0BC01CD010E94A01EDA01C90194
:103C50008093020389819A81AB81BC812CE330E09F
:103C600040E050E0BC01CD010E94A01EDC01CB0170
:103C70008093040380910203282F30E08091040395
:103C8000482F50E00DB71EB7085010400FB6F894FB
:103C90001EBF0FBE0DBFEDB7FEB731968AE193E0B0
:103CA0009183808382ED91E09383828335832483A3
:103CB000578346830E94F91E6DB77EB7685F7F4FBA
:103CC0000FB6F8947EBF0FBE6DBF2AE133E081E0EE
:103CD00061E0A9010E942D1289819A81AB81BC818A
:103CE0000097A105B10511F41092EF020F900F900B
:103CF0000F900F90CF91DF911F910F91FF90EF9058
:103D00000895629FD001739FF001829FE00DF11D25
:103D1000649FE00DF11D929FF00D839FF00D749F45
:103D2000F00D659FF00D9927729FB00DE11DF91FF1
:103D3000639FB00DE11DF91FBD01CF01112408954E
:103D4000A1E21A2EAA1BBB1BFD010DC0AA1FBB1F9F
:103D5000EE1FFF1FA217B307E407F50720F0A21B11
:103D6000B30BE40BF50B661F771F881F991F1A947E
:103D700069F760957095809590959B01AC01BD01A8
:103D8000CF0108952F923F924F925F926F927F9250
:103D90008F929F92AF92BF92CF92DF92EF92FF925B
:103DA0000F931F93CF93DF93CDB7DEB7CA1BDB0B07
:103DB0000FB6F894DEBF0FBECDBF09942A883988AC
:103DC00048885F846E847D848C849B84AA84B984B3
:103DD000C884DF80EE80FD800C811B81AA81B981BF
:103DE000CE0FD11D0FB6F894DEBF0FBECDBFED01D3
:103DF0000895AEE0B0E0EFEFFEE10C94D01E0D8927
:103E00001E8986E08C831A8309838FEF9FE79E8348
:103E10008D839E01275E3F4FCE0101966F89788D7D
:103E2000A9010E941D1F2F813885020F131FF80161
:103E300010822E96E4E00C94EC1EABE0B0E0E3E2DE
:103E4000FFE10C94C21E3C012B015A01FC011782B8
:103E50001682838181FD03C06FEF7FEFC6C19AE0B8
:103E6000892E1E010894211C311CF3012381F201CB
:103E700023FD859123FF81912F01882309F4B2C18D
:103E8000853239F423FD859123FF81912F018532FD
:103E900029F490E0B3010E941021E7CF982FFF246E
:103EA000EE249924FFE1FF15D0F09B3269F09C329B
:103EB00028F4903259F0933291F40EC09D3249F0BB
:103EC000903369F441E024C052E0F52A84E0F82AF6
:103ED00028C098E0F92A25C0E0E1FE2A22C0F7FCBC
:103EE00029C0892F80538A3070F4F6FE05C0989C53
:103EF000902C1124980E15C0E89CE02C1124E80E9B
:103F0000F0E2FF2A0EC09E3229F4F6FC6BC140E4B9
:103F1000F42A07C09C3619F450E8F52A02C09836F6
:103F200049F4F20123FD959123FF91912F019923EB
:103F300009F0B8CF892F8554833018F08052833030
:103F400038F444E050E0A40EB51E5FE359830FC07F
:103F5000933631F0933779F0933509F056C020C08D
:103F6000F5018081898342E050E0A40EB51E610115
:103F700001E010E012C0F501C080D180F6FC03C062
:103F80006FEF7FEF02C0692D70E042E050E0A40EB9
:103F9000B51EC6010E9405218C015FE7F52214C001
:103FA000F501C080D180F6FC03C06FEF7FEF02C047
:103FB000692D70E042E050E0A40EB51EC6010E94DB
:103FC000FA208C0150E8F52AF3FE07C01AC080E2FF
:103FD00090E0B3010E941021EA948E2D90E0081722
:103FE0001907A8F30EC0F601F7FC8591F7FE819141
:103FF0006F0190E0B3010E941021E110EA9401509A
:1040000010400115110579F7EAC0943611F0993680
:1040100069F5F7FE08C0F5012081318142815381A5
:1040200084E090E00AC0F501808191819C014427E1
:1040300037FD4095542F82E090E0A80EB91E9FE610
:10404000F92257FF09C050954095309521953F4F73
:104050004F4F5F4FE0E8FE2ACA01B901A1012AE0F3
:1040600030E00E943C21D82ED21840C0953729F468
:104070001F2D1F7E2AE030E01DC01F2D197F9F36A7
:1040800061F0903720F4983509F0ACC00FC090373C
:1040900039F0983709F0A6C004C028E030E00AC023
:1040A000106114FD146020E130E004C014FD1660BE
:1040B00020E132E017FF08C0F50160817181828143
:1040C000938144E050E008C0F50180819181BC01FA
:1040D00080E090E042E050E0A40EB51EA1010E94F5
:1040E0003C21D82ED2188FE7F82EF122F6FE0BC015
:1040F0005EEFF522D91438F4F4FE07C0F2FC05C0D7
:104100008FEEF82202C01D2D01C0192DF4FE0DC046
:10411000FE01ED0DF11D8081803319F499EEF92235
:1041200008C01F5FF2FE05C003C08F2D867809F01E
:104130001F5F0F2DF3FC14C0F0FE0FC01E1510F012
:104140009D2C0BC09D2C9E0C911A1E2D06C080E24A
:1041500090E0B3010E9410211F5F1E15C0F304C040
:104160001E1510F4E11A01C0EE2404FF0FC080E315
:1041700090E0B3010E94102102FF1DC001FD03C0A9
:1041800088E790E00EC088E590E00BC0802F86782D
:1041900091F001FF02C08BE201C080E2F7FC8DE2EA
:1041A00090E0B3010E94102106C080E390E0B301CB
:1041B0000E9410219A94D914C0F3DA94F101ED0D04
:1041C000F11D808190E0B3010E941021DD20A9F74C
:1041D00006C080E290E0B3010E941021EA94EE2034
:1041E000C1F743CEF30166817781CB012B96E2E1E3
:1041F0000C94DE1EFC010590615070400110D8F750
:10420000809590958E0F9F1F0895FC01615070401E
:1042100001900110D8F7809590958E0F9F1F0895FB
:104220000F931F93CF93DF938C01EB018B8181FF61
:104230001BC082FF0DC02E813F818C819D8128177C
:10424000390764F4E881F9810193F983E88306C0B2
:10425000E885F985802F0995892B31F48E819F811E
:1042600001969F838E8302C00FEF1FEFC801DF917D
:10427000CF911F910F910895FA01AA27283051F18B
:10428000203181F1E8946F936E7F6E5F7F4F8F4F87
:104290009F4FAF4FB1E03ED0B4E03CD0670F781FE6
:1042A000891F9A1FA11D680F791F8A1F911DA11DCB
:1042B0006A0F711D811D911DA11D20D009F4689404
:1042C0003F912AE0269F11243019305D3193DEF6AC
:1042D000CF010895462F4770405D4193B3E00FD062
:1042E000C9F7F6CF462F4F70405D4A3318F0495D4D
:1042F00031FD4052419302D0A9F7EACFB4E0A69530
:104300009795879577956795BA95C9F70097610551
:10431000710508959B01AC010A2E069457954795A7
:1043200037952795BA95C9F7620F731F841F951F9C
:08433000A01D0895F894FFCFD1
:1043380057454C434F4D45004175746F6D61746925
:10434800632070726573732031004D616E75616C06
:10435800207072657373203200504C412035202044
:104368004142532036202000545055203720204108
:1043780053412038005043203900737769746368CB
:104388002035206973207072657373656400456E0B
:1043980061626C696E6720504C41206D6F646500E6
:1043A80074656D70657261747572653D2025642051
:1043B80043007377697463682036206973207072CC
:1043C800657373656400456E61626C696E67204150
:1043D8004253206D616E75616C0073776974636810
:1043E8002037206973207072657373656400456EA9
:1043F80061626C696E6720545055206D616E7561FD
:104408006C00737769746368203820697320707250
:10441800657373656400456E61626C696E672041FF
:104428005341206D616E75616C00737769746368C0
:104438002039206973207072657373656400456E56
:1044480061626C696E67205043206D616E75616CA6
:1044580000507265737320737461727420007072F7
:10446800657373203420666F722073746F70004612
:10447800696E697368696E67002055736520706F8F
:104488007420746F20736574200074656D70657294
:10449800617475726500507265737320737461720C
:1044A800740054696D65723A2025643A25640000E9
:1044B80000000000000000000102020303030304DF
:1044C800040404040404040505050505050505059B
:1044D800050505050505050606060606060606067B
:1044E8000606060606060606060606060606060664
:1044F800060606060606060707070707070707074B
:104508000707070707070707070707070707070733
:104518000707070707070707070707070707070723
:104528000707070707070707070707070707070713
:1045380007070707070707080808080808080808FA
:1045480008080808080808080808080808080808E3
:1045580008080808080808080808080808080808D3
:1045680008080808080808080808080808080808C3
:1045780008080808080808080808080808080808B3
:1045880008080808080808080808080808080808A3
:104598000808080808080808080808080808080893
:1045A8000808080808080808080808080808080883
:0845B8000808080808080800C3
:04000005008002EF86
:00000001FF
